:103B8A0041542B414750533D31004F4B004154455E
:023B9A003000F9
:1026BB0044074D00000000410756004107590041F7
:1026CB0007420042075700004107540041075500DD
:0926DB00420751000041074A1EAC
:1039C0007BFF7A3B7994900723121420E49007261A
:1039D000F0A3227C002400FFEC3EFEE4FD0213C3B2
:1039E000E475F00102125490054CE0FF900747E0A7
:0339F000FE9F2215
:10398900E47F5BFEFDFC90074D1213B712126AE447
:103999007BA0FAF9F81212F59006EA1213C3900601
:1039A900EA1213AB8FAA9006EA1213AB7808121326
:0639B90098EF4480F5AB1D
:0139BF0022E5
:100046009006E97401F09006E87403F07B017A06E5
:1000560079E87F011222A6C290C291C2CDC2A9C27E
:10006600AB53D17F53AFBF123989D296900630E495
:10007600F0A304F0E4900773F0900554E0FF30E03D
:1000860006D2AAD28A8004C2AAC28AEF30E103D27B
:04009600A822C2A832
:01009A002243
:10370C00123AF4123A1AD291D2B143D18043AF405B
:10371C00D28CD2A9D2CD90052F1213CF000000006D
:10372C00E49006B3F0900771F090076C1213CF0081
:10373C0000000090056A1213CF0000000090074AA9
:10374C00741EF0D2CC7F2C7E01123B0DC2CC7FD0EC
:05375C007E07023B0D99
:103896004387020000000000000000000000000056
:1038A6000000000000000000000000000000000012
:1038B6000000000000000000000000000000000002
:0F38C60000000000000000000000C2960219F987
:101F8A007FE87E03123B0D122AE6123AF4123A1A3D
:101F9A00123B51123B77123BBD12000612000ED2C1
:101FAA00B6D2B5D2B4D2B7D2B0D2B1C297C2CCC22D
:101FBA00CDD29678F8E6FE08E690074D1239D37529
:101FCA00C1277B017A0579379006ED7432F07D00DE
:101FDA007C3E12391212242290062F7402F0D2AFDC
:101FEA0012398990062FE0146023147003022078B6
:101FFA001470030220E8146068240460030220F1CC
:10200A0012370C1239C00412210E0220E090052F5B
:10201A001213CF00000000E49006B3F090076C1290
:10202A0013CF000000007FE87E03123B0D123255E9
:10203A00BF011A7F647E00123B0D900544E0FEA3A7
:10204A00E090067D1239D390062F7404F090052F84
:10205A001213CF00000000E49006B3F090076C80E2
:10206A00039005331213CF000000000220F112374B
:10207A000C7FD07E07123B0D90074A741EF0E49045
:10208A00060BF01239C07402F0A37405F07A3B799A
:10209A00971231AA1239C0740212210E1235321265
:1020AA0028F41230FE9006A5E0B4012012362DBFA6
:1020BA00010E90074A740FF012341E121DF5802784
:1020CA0090067D1213CF000000B4800A90067D129C
:1020DA0013CF000000B490062F7401F0800912009B
:1020EA00A6123A6412211BE4FFFEFDFC900533128E
:1020FA0013B7C3121387700612004612389643C1EB
:10210A0010021FEDF0A37405F07A3B798A1231AA06
:01211A0022A2
:03000B00022E2D95
:102E2D00C0E0C0F0C083C082C0D075D000C000C06B
:102E3D0007C28C9007511239E090074AE075F002F5
:102E4D00A4FFD3900752E09F900751E095F0400604
:102E5D00B296E4F0A3F0900757E07002A3E0601B78
:102E6D009007571239E0D3900758E094F490075724
:102E7D00E0940140069007427401F090074BE0602A
:102E8D0023900753E004F090074CE4F0900753E0D3
:102E9D00D39496400F90074C7401F090074BE4F0DB
:102EAD00900753F030000690052DE004F09006B227
:102EBD00E075F032A4FF90052DE0D39FE5F064801E
:102ECD00F87480984004C200E4F0D28CD007D00092
:0B2EDD00D0D0D082D083D0F0D0E03203
:103B5100538E7F5389F0E4F58A758CB8C28DD28C6F
:033B6100D2A922C4
:1019F900900754E0FFB4010E90062FE0B40407E409
:101A0900900754F08045EF704290062FE0FF640480
:101A19007039900749E0240AF0900616E0FE601B31
:101A2900EFB40417900755E004F0E0D3943C400B61
:101A390090060B7401F0E4900755F0EE700D9006D6
:101A49002FE0B4040690060B7401F0900749E0D327
:101A5900943B400CE024C4F0900748E004F080EB8C
:101A6900900748E0D3943B400CE024C4F09007472A
:101A7900E004F080EB900747E0D39417400CE02492
:101A8900E8F0900746E004F080EB900745E0121477
:101A9900291AC2011AD8021AC2031ACD041AC20598
:101AA9001ACD061AC2071AC2081ACD091AC20A1A89
:101AB900CD0B1AC20C00001AFD900746E0C3942012
:101AC90040328027900746E0C3941F4027801C902E
:101AD9000744E05403700B900746E0D3941D40146B
:101AE9008009900746E0D3941C40097401F09007DF
:101AF90045E004F0900745E0D3940C40097401F0E7
:101B09009007431239E090062FE064046003021B3A
:101B1900F9D31239E74008EFFDEE9DFFE48012C3C7
:101B29001239E75031EE2418FDE433FCC3ED9FFF71
:101B3900EC9400FE7C007D3C1211B7A3E02FFFEC72
:101B49003EFE90054DE0FDC3EF9DFFEE9C9006FB28
:101B5900F0A3EFF0802A90054DE0FF900748E0FEE2
:101B6900C39F4006EFFDEE9D800B900748E0FF9074
:101B7900054DE0C39FFEE494009006FBF0A3CEF070
:101B8900E4FBFAD39006ABE09B9006AAE09A4032B8
:101B99009006ACE0FCA3E0FDAF03AE021211B790D2
:101BA90006FBE0B50615A3E0B5071090062F7402F1
:101BB900F09005331213CF000000010BBB00010A9E
:101BC90080C1900747E075F064A4FFA3E07C002F73
:101BD900FFEC35F0FE9006B0E0B50614A3E0B507BA
:101BE9000FE490062FF09005331213CF0000000187
:011BF90022C9
:101BFA004D4950444154410041542B434243004310
:101C0A0042433A20302C0041542B43535100435352
:101C1A00513A0041542B434349443F00434349440A
:101C2A003A200041542B435245473F0041542B4729
:101C3A005053494E464F3F00475053204E4F0041A4
:101C4A00542B4750534E4D45410041542B43475363
:101C5A004E0041542B4D495053454E443D312C368C
:101C6A0030003E0041542B4D4950434C4F53453DA3
:101C7A00310041542B4D49504F50454E3D312C2295
:101C8A00544350222C2225642E25642E25642E25A9
:101C9A0064222C256C642C353030300041542B4D95
:101CAA00495043414C4C3D312C22434D4E45542220
:101CBA00002B4D495043414C4C3A2031004D49507C
:101CCA004F50454E3A20312C310041542B4D49504A
:101CDA004D4F44453D302C302C30004F4B00415481
:101CEA002B434345443D302C3100434345443A207D
:101CFA0034004D4950444154413A20312C002A4D78
:101D0A00473230004244284B0041492851004241A1
:101D1A00302300424900424B0042413123002C4704
:101D2A0042003047420031474200414828500042B1
:101D3A0043230042452300444500314441003044D6
:101D4A004100290051482C00424248004D49504365
:101D5A00414C4C3A2030004D4950434C4F53453A80
:101D6A0020312C3000434D45204552524F523A20E3
:101D7A0034002A4D473230594142230041542B4DF9
:101D8A00495053454E443D312C39320041542B4D74
:101D9A00495053454E443D312C3332004343454468
:101DAA0000434345443A200041542B4D4950534582
:101DBA004E443D312C3130360041542B4D4950535D
:101DCA00454E443D312C3132340041542B4D49505B
:101DDA0053454E443D312C3130320041542B4D494C
:0B1DEA005053454E443D312C35330072
:1026E400603206B4700446EE2328000000000000A7
:1026F400B400BE001E012C0000090004000001000B
:1027040000030000020000000000000000000000C0
:1027140000000000000041052D004106B200440500
:102724002F000000004106B30044056A00000000C9
:102734006082058900000000000000000000000025
:102744000000000000000000000000000000000085
:102754000000000000000000000000000000000075
:102764000000000000000000000000000000000065
:102774000000000000000000000000000000000055
:102784000000000000000000000000000000000045
:102794000000000000000000000000000000000035
:1027A4000000000000000000000000000000000025
:1027B40000000000000041052E0041060B01420507
:0327C4008700008B
:10087100F0A37426F0A37442F0A37430F0A3F0A3A4
:10088100F0A3F0A3F0A3F0A3F0A3F0A3F0A3F0A3CF
:10089100227B017A0079059007241214207BFF2224
:1008A100EF2430F07C007D64AF03AE021211C97CED
:1008B100007D0A1211C9ED2430A3F0900630A3E0A7
:1008C1007C007D0AFFAE021211C97C007D0A121163
:1008D100C9ED243022A3F0A37423F07A1C796C7B38
:1008E100FF900723121420E4900726F0A322E09042
:1008F10005BFFD75F00A842430F0ED75F00A84E53A
:10090100F02430A322F0A37426F0A37450F09006D3
:1009110032E09005A3F0900633E09005A4F0900634
:1009210034E09005A5F0900635E09005A6F090061C
:1009310036E09005A7F0900637E09005A8F0900604
:1009410038E09005A9F0900639E09005AAF09006EC
:100951003AE09005ABF090063BE09005ACF09006D4
:100961003CE09005ADF090063DE09005AEF09006BC
:100971003EE09005AFF090063FE09005B0F09006A4
:1009810040E09005B1F0900641E09005B222F58279
:10099100E43400F583E0FF7E007C037DE81211B7AB
:1009A100EF2BFBEE3AFA740A29F582E43400F58361
:1009B1007D0A7C00E0FF7E000211B7F0A37430F0E5
:1009C100A3F0A37426F0A37454F0900630E0FEA3C4
:1009D100E0FF229006EFE0FCA3E0FD25E0FFEC3311
:1009E100FE9006E8121400E92FF9EA3EFA900001A0
:1009F100021156741E2FF582E43406F583E0FE746D
:100A01008F2FF582E43405F583EEF0229005897489
:100A11002AF0A3744DF0A37447F0A37432F0A374C9
:100A210030F0A322900544E0FEA3E07C002400FF07
:100A3100EC3EFEE4FD227401F07A1B79FA7BFF9013
:100A410007301214207B012290067D1213ABEF2494
:100A5100F6FFEE34FFFEED34FFFDEC34FFFCE47BEA
:100A610014FAF9F812126A90053322F5837D64E0D5
:100A710024D0FFE434FFFE7C000211B7A3F09005FF
:100A810069E0FD2495F582E43401F583E0FE749676
:100A91002DF582E43401F583E0227426F0A3745429
:100AA100F09006307C037DE8E0FAA3E0FBFFAE02A4
:100AB1000211C99005A07442F07444A3F090052E70
:100AC100E0440CF0222430F0A37426F0A322EF2B93
:100AD100FFEE3AFE740B29F582E43400F583E0223F
:100AE10024A9FF9006EC1214008D828C83121156FA
:100AF1002FFF9006EF22900630E475F001021254A8
:100B0100EF2430F07D0A7C00AF03AE02227426F0A0
:100B1100A37457F0900616E0243022F583E024D028
:100B2100FFE434FFFE7C037DE81211B7EF2BFBEEEF
:100B31003AFA22900569E0FD240AF582E43400F5D1
:100B410083E022EF2BFFEE3AFE740F29F582E434A5
:100B510000F583E022F0900748E0FD75F00A842457
:100B6100302225E0FFEC339006E8FE1214008F825C
:100B71008E830211567426F0A3744DF090061BE08B
:100B81002290071A12140090071EE07E0029F9EE48
:100B91003AFA227BFF7A1C79F490072312142090F1
:100BA10007267401F0A37403F0A37405F07A1C798D
:100BB100E822740DAA06AB0729F582E422EF2BFF88
:100BC100EE3AFE741029F582E43400F583E0222424
:100BD10009F582E43400F58322F0740E29F582E4EC
:100BE1003400F58322E075F064A4FFA3E07C002FBC
:100BF10022900569E0FF2495F582E43401F583E054
:100C0100227C037DE81211C9EF2430227A0679B4DF
:100C11007B0190071F7432F07D007C3E2274952F7A
:100C2100F9EE3401FA9006EC02142090059E742C22
:100C3100F0A3221213ABEF2401FFE43EFEE43DFDDD
:100C4100E43CFC2274419005A0F0A37448227B018E
:100C51007A057989227B017A07791D90072302148D
:100C6100209006AAE0FCA3E0FD7E057FA01211C939
:100C7100A3EEF0A3EF229005A0F0A304F090052EBF
:100C8100E0440822744EF090062DE022F0900743D4
:100C9100E0FAA3E0FB7C007D64229006EC121400D4
:100CA1009006EFE0FEA3E0F5828E83E422FEEC35B0
:100CB100F0F0A3CEF0222FFFEC3ECF24B0CF342FA3
:100CC10022900569E0FF7E002407F9EE3400FA7BEB
:100CD1000122F583E075F00AA4FF221213B7C302C3
:100CE1001387FFE0FCA3E0FDC39F7480F8EC6480F0
:100CF100982224D0FFE434FFFE7C007D0A0211B764
:100D0100FFE4F0A3EFF022900554E04404F09005D5
:100D11004E740622900569E0F9240EF582E4340050
:100D210022F583E02F24F0227447F0A374302224AB
:100D31000DF582E4340022EFF09006560213ABE089
:100D4100FF7E007C007D640211B724D0FDEC34FFEE
:100D5100CD2FFFED3E22E4900757F0A3F09007421C
:100D6100F022F0900617E02430227C007D0A121256
:100D71001EED24302274912FF582E43406F583228E
:100D8100E4FEFDFC1213B702126A2499F582E434E1
:100D910001F583E022249BF582E43401F583E0220E
:100DA1007E007F0ACFCDCFCECCCE22900678E00454
:100DB100F022745AF09006A8E024302290062F7495
:100DC10001F090067D22900720121400900729223D
:070DD100A3E0F5828C8322F0
:10242200900537E0900652F0900538E0900653F0A0
:10243200900539E0900654F090053AE0900655F088
:1024420090053B120A289006561213C390053D12BE
:102452000A2890065A1213C390053FE0900677F0BF
:10246200900630E4F0A304F0900542120A28900688
:10247200791213C390054A120BE6FFEC35F0FE7D8C
:102482003C1211B7E4FD9006891213C3E4FFFEFD6E
:10249200FC900689120CDC7005120A258006900653
:1024A200891213AB90067D1213C3900546120A28B7
:1024B2009006811213C3900548120A2890068512CD
:1024C20013C390054C120BE69006A6120CAE9005B3
:1024D2004CE0D394019006A7E0400B2438FE90060E
:1024E200A6E034FF80092498FE9006A6E034089006
:1024F20006B0F0A3CEF090054EE09006A8F090054D
:102502004FE09006A9F0900550120BE69006AA1231
:102512000CAEE4900616F0A3F0900554E030E0060D
:10252200D2AAD28A8004C2AAC28A900554E030E1BB
:1025320004D2A88002C2A8120C62F090062F740284
:10254200F0900554E054FBF09007497402F09007B4
:102552004814F0900747F0900746F0900745F09036
:1025620007437407F0A374E2F09005331213CF000F
:10257200000000E4900555F0A3F0A3120BE6FEEC78
:0A25820035F09006AEF0A3CEF02273
:1028F400120A3A7A027999122D6EE94A4B70031240
:102904003ADAE4900003F07BFF7A1C7902123AA1D0
:102914007F0D123B9C7F0A123B9C9000047464F070
:10292400900003E060FA1208927A1C79097D06127D
:082934002FA2EF70030229FB42
:10293C00900569E0F9120D30120A6C740C120BB58B
:10294C003400F583E0FF7E00120B26120BDB7D0AB0
:10295C00120A70120B442FFFEC3ECF2450CF34449C
:10296C00FE9006E9F0A3EFF0241CFFEE34F3FE7D9D
:10297C00051211B77D0212121EA3EEF0A3EFF0D3D5
:10298C0094E7EE64809483400790061B74398010A2
:10299C00C39006EBE064809480500C90061B74305E
:1029AC00F0A3F0A3F080299006EB120C91FFAE027D
:1029BC0012121E90061B120B0112121E120D6BA38B
:1029CC00F09006EBE0FEA3E0FF120D6B90061DF0FD
:1029DC00900617E054F7F0C39006ECE094C890060C
:0F29EC00EBE0648094805007900617E04408F0F9
:0129FB0022B9
:10341E009006E9120A377A027999122D6EE94A4B13
:10342E007003123ADAE4900003F07BFF7A1C7911F4
:10343E00123AA17F0D123B9C7F0A123B9C90000416
:10344E007464F0900003E060FA1208927A1C791806
:10345E007D04122FA2EF603D900569E0FF240B1250
:10346E000AD8FEB42C1090062D7430F0740A2F1268
:10347E000B3B90062EF0900569E0FF240CF582E4DC
:10348E003400F583E0B42C0D740A2F120B3B90061A
:0A349E002DF0A3EEF09006E9E0FF28
:0134A8002201
:1030FE009006E87401F0E4900678F0900678E0C34C
:10310E009414400302319C123ADA7BFF7A1C791D2B
:10311E00123AA17F0D123B9C7F0A123B9C90000439
:10312E0074C8F0900003E060FA1208927A1C7926B7
:10313E007D06122FA2EF6046900569E02420F582ED
:10314E00E43400F583E064227037FFEFFD900569EB
:10315E00E02DFDE433FC740C2DF58274003CF583F8
:10316E00E0FE120D76EEF00FEFB414DFE49006E8F9
:10317E00F09006A504F09006787414F08003120DFA
:10318E00AC7F147E05123B0D43C110023109123A79
:0B319E00DAE4900678F09006E8E0FF0D
:0131A9002203
:10362D00E49006E8F0900678F0123ADA7BFF7A1C07
:10363D00792D123AA17F0D123B9C7F0A123B9C7F84
:10364D00B07E04123B0DE4FFFE74052FF58274006D
:10365D003EF583E0B43A2274092FF58274003EF5ED
:10366D0083E0FD64316004EDB4350E9006E874011D
:10367D00F09006787432F0800B0FBF00010EBE0281
:10368D00C8BF94C543C110120DACE0C3943240992C
:08369D00123ADA9006E8E0FFA2
:0136A5002202
:10325500E4900003F07A1C79361232E17496F0900E
:103265000003E060FA1208927A1C79427D06122F5B
:10327500A2BF010DE49006E9F090074A7407F080BB
:10328500439006E9120A377A007905122D6EE94A4C
:103295004B7003123ADAE4900003F07A1C79491274
:1032A50032E17464F0900003E060FA7B017A007902
:1032B500059006ED1214207A05796E123A409007B2
:1032C5004A7401F0120A3A7A027999122D6EE94A86
:0B32D5004B7003123ADA9006E9E0FFAC
:1032E000227BFF123AA17F0D123B9C7F0A123B9C6E
:0432F0009000042224
:103532009006E87401F0123ADA7BFF7A1C79541291
:103542003AA17F0D123B9C7F0A123B9C7FE87E03CF
:10355200123B0DE4FFFE74182FF58274003EF583D2
:10356200E0644F703874192FF58274003EF583E0E1
:10357200644B7029FDED2FFBE43EFA74052BF582B6
:1035820074003AF583E0FC741E2DF582E43406F5EE
:1035920083ECF0E49006E8F00DEDB40FD80FBF0015
:1035A200010EBE02B1BF80AE123ADA9006E8E0FF29
:0135B20022F6
:1032F4001228F412341E120A0D04F0E4FF1209F429
:103304000FEFB40FF8120C2C7441F0A37448120898
:1033140071120B0E9005AFF0900617E09005B012F5
:103324000AC6120B7A9005B3F090061CE09005B41F
:10333400F090061DE09005B5120AC8120C859005A0
:10334400B8F090062EE09005B9120AC8120DB39099
:1033540005BCF0A3F0A3120A9B9005C01208A1902B
:1033640005C2120B041208CF1208D67402F0A3F09F
:103374007A1C795C1231AA120C4F7D3C1200167F24
:0E3384001A123B9C900630E475F001021254C0
:0631AA0090072012142022
:1031B0009007297401F0A312142043C110E4900673
:1031C00078F0900728E0FF900678E0C39F50669063
:1031D0000729E06401705E43C110900720121400BB
:1031E000123AA17F0D123B9C7F0A123B9CE4900592
:1031F0002DF0900727E09006B2F0D200E490000393
:10320000F0A200E433FF900729E05F6023900723DA
:10321000121400120A407A007905122D6EE94A4B09
:10322000700790072904F080D8E4900729F080D136
:10323000120DAC808D120A3A7A027999122D6EE93C
:103240004A4B700B900726E064016003123ADA9053
:043250000729E0FF6B
:013254002257
:101DF5007BFF7A1C796E123AA17F0D123B9C7F0AFC
:101E0500123B9C7FDC7E05123B0D43C1107BFF7AA4
:101E15001C797C90071D121420900652E090072033
:101E2500120D01900653E0900722120D0190065401
:101E3500E0FF900724E4F0A3EFF0900655E0FF9053
:101E45000726E4F0A3120D389007281213C37B016F
:101E55007A0679E8120E3D7A1C79BB1208E0740304
:101E6500F0A37414F07A1C79A61231AAEF6003026C
:101E75001F7F7BFF7A1C79C71208E27403F0A374F5
:101E85000AF07B017A0679E81231AAEF707590079E
:101E95004A7407F07BFF7A1C79E51208E204F0A387
:101EA5007405F07A1C79D41231AA120B941231AA56
:101EB500EF702712258C122BC5900757E4F0A30469
:101EC500F090052F1213CF00000000E49006B3F048
:101ED50090076C1213CF00000000E4900587F0A373
:101EE500F090062F7403F090052F1213CF00000019
:101EF50000E49006B3F0C2A8900554E030E114D296
:101F0500A88010900587120AFA120DBD1213CF0092
:101F15000000F09006AEE0FEA3E0FF640F7003EE54
:101F250064276060D3900588E09F900587E09E4018
:101F350053900652E09006D6F0900653E09006D7EF
:101F4500F0900654E09006D8F0900655E09006D93A
:101F5500F0E4FB7A01F9F8120D3A1212F59006DA5F
:101F6500120D38E49006DBEFF0120C0D123761E428
:101F7500900587F0A3F075C72022120DBD1213CF6F
:041F8500000000F068
:011F89002235
:1000A600900003E0640160030208331208927A1C90
:1000B60079FC7D0B122FA2EF70030207D890052F53
:1000C6001213CF00000000E49006B3F090052EF066
:1000D6001208927A1D79087D05122FA2EF7003028D
:1000E60007D5120B34B4300790052EE054FEF07499
:1000F6000A2D120B3BB4310790052EE04401F09017
:100106000569E0240B120AD8B4300790052EE05496
:10011600FDF0900569E0240B120AD8B4310790056A
:100126002EE04402F01208927A1D790E12084260FF
:100136002E120B34B4310C120AB4D2AA900554E034
:100146004401F0740A2D120B3B643060030207D59C
:10015600120AB4C2AA900554E054FEF00207D51262
:1001660008927A1D79131208426043900569E0FDF2
:10017600120BD0E0B43114D2A8900554E04402F03A
:100186009005A07441F07449120ABC74092D120B33
:10019600D2E0643060030207D5C2A8900554E0544B
:1001A600FDF09005A07441F0A3744902027612088E
:1001B600927A1D791812085C6009120ABE120D089F
:1001C6000202941208927A1D791D120863604B127E
:1001D6000CC2C002C001120C1ED001D0021208507F
:1001E6007449120A7D7C002400EC3EC3940050033F
:1001F6000207D5900569E0120A84120A2E9006813C
:100206001213C3120ABE120BF2900546F074962F13
:10021600120A92900547F00207D51208927A1D79C4
:10022600201208636050120CC2C002C001120C1EDC
:10023600D001D002120850744B120A7D7C002400B3
:10024600FFEC3EFED3EF9400EE940050030207D578
:10025600900569E0120A84120A2E9006791213C3D9
:10026600120BF2900542F074962F120A92900543F3
:10027600120ABD0207D51208927A1D792312085C6C
:100286006019120C0D123761120D08120C7DF090D8
:1002960005A07442F0A314F00207D51208927A1D45
:1002A6007928120834701B1208927A1D792C1208CC
:1002B60034700F1208927A1D793012083B700302CF
:1002C60003CF900569E0F9120BD07D641209B3AA39
:1002D60006AB0774082912098F120ACF120CB790C1
:1002E60006A6F0A3EF120BDAE0B4231A900569E034
:1002F600120D30F583E024D0FEE434FF9006AAF018
:10030600A3CEF00203A2900569E0FB240F120B4D69
:10031600B4231F900569E0FA120D301209AF740E6E
:100326002A120BDEE02FFFEC3ECF24F0CF34FD0285
:10033600039B74102B120BC764237021120D151228
:1003460009AF120BB33400F5837D641209B5120BA5
:10035600442FFFEC3ECF2430CF34EB803890056934
:10036600E0F92411F582E43400F583E06423702C6F
:10037600120BDB120D40120BB33400F583E0FF7E47
:1003860000120B26740F29F582E434001209AF120D
:100396000BBE120CB79006AAF0A3EFF09006AA7C4B
:1003A600007D64120AA9900550EFF07D64120B07D8
:1003B6001211C9A3EDF0120C62120ABD9005A074C9
:1003C60047F0A37442F00207D51208927A1D7934D9
:1003D6007D04122FA2EF70030204BF900569E0FFAF
:1003E600120BD0E064316003020489740B2F120AE9
:1003F600D8B43024120ABE120C45F09006891213A6
:10040600CF0001518090054A740EF0A37428F09035
:1004160006891213AB02047D900569E0FF240B12D6
:100426000AD8643160030207D574122FF582E434CA
:1004360000F583E0642360030207D5120ABE120C9E
:1004460045F0120D15120A6C120BB33400120B1C78
:10045600120B4A120CF3120BBE120D4BFEE4FD906A
:1004660006891213C39005331213CF000000017FD3
:100476003C900689120D81EF243C120C3A90067DC1
:10048600020712900569E0120BD0E06430600302A7
:1004960007D5120ABE120C45F09006891213CF003A
:1004A600000000E490054AF0A3F0120A2590067DAC
:1004B6001213C3120A490207121208927A1D7939D9
:1004C60012083B6016E4900616F0A3F07442120C74
:1004D60077F090060B7401F00207D51208927A1D88
:1004E600793D1208496006123B640207D51208924C
:1004F6007A1D79417D02122FA2EF70030205CC907E
:100506000569E0FF2407F582E43400F583E06428FA
:1005160060030207D574162FF582E43400F5837460
:1005260029F074092F120BD2120D40AA06AB0790C0
:100536000569E0F9240812098F120ACF120CB79048
:100546000743F0A3EFF0740C29F582E43400120C93
:10055600D3740D29F582E43400120D22900745125A
:100566000BDA120CD5120B4A2F24F0900746F01224
:100576000BC475F00AA4FF741129F582E434001245
:100586000D22900747F0741229F582E43400120C0C
:10059600D3741329F582E43400120D22900748F033
:1005A600741429F582E43400120CD3741529F582EB
:1005B600E43400120D22900749F07444120C77F0CF
:1005C6001219F90207D51208927A1D7944120849C0
:1005D600700F1208927A1D794812086A7003020792
:1005E600181208927A1D794C7D01122FA2EF600332
:1005F6000207D5900569E0FF2418F582E43400F57A
:1006060083E0642360030207D5FE74082FF9EE34F5
:1006160000FA7B01C002C001120C1ED001D0027D7F
:1006260010122EE8120BF2900652F074962F120A50
:1006360092900653F0900569E02497F582E4340120
:10064600F583E0900654F074982FF582E43401F5B2
:1006560083E0900655F0900569E0FD120D8BFE745F
:100666009A2DF582E43401F583120A2B90065A126C
:1006760013C3900569E0FD120D96FE749C2DF5825C
:10068600E43401F583120A2B9006561213C3E49044
:100696000677F0900652E0900537F0900653E0900A
:1006A6000538F0900654E0900539F0900655E09034
:1006B600053AF0900569E0FF120D8B90053DF07448
:1006C6009A2FF582E43401F583E090053EF090051B
:1006D60069E0120D9690053BF0749C2FF582E43488
:1006E60001F583E090053CF0E490053FF09005A00D
:1006F6007444F0A37441120ABD900554E04404F01A
:1007060090067D1213ABEF24EC120A521213C302A9
:1007160007D51208927A1D794E12086A70030207ED
:10072600BA900569E0F92409F582E43400120A6CEE
:10073600AA06AB07740829F582E43400120B1C7470
:100746000A29120B3B120CF3120ACF120D4B90061C
:10075600AEF0A3EFF09006AEE0FAA3E0FB7D6412E4
:100766000AAE900557EFF07C007D64AF03AE02122F
:1007760011C9A3ED120ABD7451120C47F090055928
:10078600E0900537F090055AE0900538F090055B4B
:10079600E0900539F090055CE090053AF090055D33
:1007A600E090053DF090055EE090053EF090053B3B
:1007B600743080181208927A1D79527D03122FA286
:1007C600EF600C120C7EF09005A07431F0A3F012CD
:1007D6003ADA1208927A1D79567D0A122FA2EF6034
:1007E6000B120A49120CDC5003121DF51208927AFC
:1007F6001D79617D0D122FA2EF700F1208927A1DDE
:10080600796F7D0C122FA2EF600B120A49120CDCD5
:100816005003121DF51208927A1D797C7D09122F5C
:10082600A2EF60061235B3120D57123ADA227D0393
:10083600122FA2EF227D03122FA2EF227D04122F88
:10084600A2EF227D03122FA2EF227D04122EE89042
:1008560005A07442F0227D04122FA2EF227D02121F
:0B0866002FA2EF227D03122FA2EF2231
:103B6400123255BF010302144F12258CBF010312F8
:033B740027E9221C
:0B2FA200900720121420900723EDF090
:102FAD0053AFFEE4900727F0A3F0900727E0FEA3B0
:102FBD00E0FFC39489EE64809482400302304AE4BA
:102FCD00A3F0A3F0120DC7E0FC120DD1121156FDA6
:102FDD00900724120B6C6D705B900729F0A3F09095
:102FED000723E0900729120CE35026900728E02DC7
:102FFD00FF900727E03C900724120B6BFF120DC7C3
:10300D00120DD1121156B50708900729120AFA8030
:10301D00CE900723E0FFC390072AE09F7480F890BD
:10302D000729E0648098400C900727A3E09005697C
:10303D00F07F0122900727120AFA022FB743AF0142
:02304D007F0002
:01304F00225E
:102BC500120A0D04F0E4FF1209F40FEFB40FF81226
:102BD5000C2C7441F0A304120906120871120B0E95
:102BE5009005C1F0900617E09005C2120AC6120DB5
:102BF50029120885120B769005CDF090061CE09001
:102C050005CEF090061DE09005CF120AC8120C857E
:102C15009005D2F090062EE09005D3120AC8744FA5
:102C2500F0A374301208897426F0A3120DB3900531
:102C3500DCF09006A9E024309005DD1209C2120CE3
:102C4500029005E01209CA7C007D641208C890054F
:102C5500E11209CA7C007D0A1208C89005E2120932
:102C6500CA1208CB9005E31208D704F0A3F07A1D29
:102C750079861231AA120C4F7D5C1200167F1A124A
:102C85003B9C120AF790052F1213CF000000007F1E
:062C9500647E00023B0D0D
:0E211B0090052EE0FF20E1030221AE30E37BB1
:10212900120A0DF0E49006E8F09006E8E0FF241E9C
:102139001209F79006E8E004F0E0B40FEC120C2C59
:102149007459F09005A2120A9B9005A41208A19057
:1021590005A6120B041208CF1208D604F0A3F07AD0
:102169001D79961231AA120C4F7D201200167F1A82
:10217900123B9C120AF790052F1213CF00000000A2
:10218900900554E030E2147FD07E07123B0D1222F5
:0B219900877FD07E07123B0D75C7202A
:1021A40090052EE054FDF054F7F090052EE030E455
:1021B4000E123B64120A3A12229B7003123ADA900E
:1021C40006B3E0D39400401D1232F4E49006B3F059
:1021D40090052F1213CF00000000120A3A12229B1E
:1021E4007003123ADA900771E0B401229006851266
:1021F40013AB90056A120CDC501490056A120C346F
:1022040090056A1213C3E4900771F0123B649007BF
:1022140042E0B401061235B3120D5790074CE0B4F6
:102224000112123B64E4900773F090074CF090079E
:102234004BF0D2A8900770E0B40114900533120C4F
:10224400349005331213C3122287E4900770F07F91
:1022540014900681120D8190076C1213B7D31213D8
:1022640087401F9007717401F09006811213AB90A0
:102274000749E02FF01219F990076C1213CF0000F0
:102284000000227BFF7A1C796E123AA17F0D123B6B
:102294009C7F0A123B9C227A027999122D6EE94A9C
:0222A4004B22CB
:103A640090052EE0FF30E01730E00A7A057937122E
:103A74000C1112376190052EE054FBF054FEF02235
:0B2EE8009006E81214209006EBEDF0BD
:102EF300E49006EFF0A3F09006EBE09006EF120CDF
:102F0300E34003022FA1ED120B63FF24D024F650FC
:102F13000E24F924FA500D24E624FA5022802FEFD0
:102F230024D0800D9006EFE0FCA3E0FD120B632498
:102F3300C9C454F0FF9006EC1214008D82800A126B
:102F430009D4120AE1A3E0F5828C83EF8003120C0B
:102F53009B1211951209D424D024F6500F24F9247E
:102F6300FA501624E624FA501A022F92ED1209DCC5
:102F730024D0120AE3E0FC80101209D424C9120AF7
:102F8300E380061209D4120AE1120DD1EF80031275
:0E2F93000C9B1211959006EF120AFA022EFA0C
:012FA100220D
:10258C00E490071FF0120B941231AAEF600302269D
:10259C00991208927A1C79F47D07122FA2EF70031E
:1025AC0002269990071F7401F09006327430F0A344
:1025BC007434F0A37436F0A37430F07A1D79A6123B
:1025CC000A3E7A007905122D6E90071A1214207D9E
:1025DC00011226B1602D120B82C003C002C0011281
:1025EC000C56D001D002D0031229FC900636743060
:1025FC00F0A3F090075AE0900638F090075BE0905B
:10260C000639F090071A1214007D021226B16035BB
:10261C00120B82C003C002C001120C56D001D002B2
:10262C00D0031229FC90075AE090063AF090075B11
:10263C00E090063BF090075CE090063CF090075D64
:10264C00E090063DF090071A1214007D031237B487
:10265C0090071EEFF0F46035120B82C003C002C06D
:10266C0001120C56D001D002D0031229FC90075A4B
:10267C00E090063EF090075BE090063FF090075C20
:10268C00E0900640F090075DE0900641F0120A3AA7
:10269C007A007905122D6EE94A4B7003123ADA90E2
:0426AC00071FE0FF25
:0B26B000221237B490071EEFF0F42256
:10144F00120A0DF0E4FF1209F40FEFB40FF8120CAB
:10145F002C7442F0A314120AC87441F0900747E0AD
:10146F009005A31208F3120B569005A51208FAF077
:10147F00900749120B5A9005A71208FAF090056EC3
:10148F00E09005A9F090056FE09005AAF090057027
:10149F00E09005ABF0900571E09005ACF09005720F
:1014AF00E09005ADF0900573E09005AEF0900574F7
:1014BF00E09005AFF0900575E09005B0F0900578DD
:1014CF00E09005B1F0900579E09005B2F090057AC3
:1014DF00E09005B3F090057BE09005B4F090057CAB
:1014EF00E09005B5F090057DE09005B6F090057E93
:1014FF00E09005B7F090057FE09005B8F09005807B
:10150F00E09005B9F0900577E09005BAF0A374303C
:10151F0012088BF09007461208EFF0900745120B58
:10152F005A9005C11208FA120C8D120AAE120DA1B3
:10153F001211C99005C3120B011208CFA3F07BFF44
:10154F007A1D79AB1208E27402F0A314F07A1C79B9
:10155F00E81231AAEF640160030216049005C51268
:10156F000873120B0E9005D3120D639005D4120A57
:10157F00C8120D29120885120B769005DFF0900620
:10158F001CE09005E0F090061DE09005E1120AC8FE
:10159F00120C859005E4F090062EE09005E5120AF6
:1015AF00C8744FF0900583E09005E8F0900584E053
:1015BF009005E91209BC120C029005EE1209CA7CC3
:1015CF00007D641208C89005EF1209CA7C007D0ADD
:1015DF001208C89005F01209CA1208CB9005F11233
:1015EF0008D704F0A3F07A1D79B21231AA120C4F6A
:1015FF007D6A02172312258C9005C57426F0A374FB
:10160F0050F0900632E09005C7F0900633E0900559
:10161F00C8F0900634E09005C9F0900635E09005CB
:10162F00CAF0900636E09005CBF0900637E09005B3
:10163F00CCF0900638E09005CDF0900639E090059B
:10164F00CEF090063AE09005CFF090063BE0900583
:10165F00D0F090063CE09005D1F090063DE090056B
:10166F00D2F090063EE09005D3F090063FE0900553
:10167F00D4F0900640E09005D5F0900641E090053B
:10168F00D6120871120B0E9005E5120D639005E648
:10169F00120AC8120D29120885120B769005F1F067
:1016AF0090061CE09005F2F090061DE09005F312F5
:1016BF000AC8120C859005F6F090062EE09005F7FB
:1016CF00120AC8744FF0900583E09005FAF0900568
:1016DF0084E09005FB1209BC120C0290060012095F
:1016EF00CA7C007D641208C89006011209CA7C00EA
:1016FF007D0A1208C89006021209CA1208CB90067A
:10170F00031208D704F0A3F07A1D79C31231AA127D
:10171F000C4F7D7C1200167F1A123B9C120AF79019
:09172F00052F1213CF0000000089
:01173800228E
:1027E900120A0DF0E4FF1209F40FEFB40FF8120CFE
:1027F9002C7442F0A314120906120AC87445120C6B
:102809008D120AAE120DA1120C069005B5120B0419
:102819001208CFA3F0900745120B5A9005B712087A
:10282900FAF0900746120B5A9005B91208FAF0907F
:102839000747120B5A9005BB1208FA120B5690055E
:10284900BD1208FAF09007491208EF120871120B2D
:102859000E9005CF120D639005D0120AC8120D29EA
:10286900120885120B769005DBF090061CE09005A6
:10287900DCF090061DE09005DD120AC8120C859067
:1028890005E0F090062EE09005E1120AC8744FF0B9
:10289900A374301208891209C4120C029005EA12B5
:1028A90009CA7C007D641208C89005EB1209CA7C2C
:1028B900007D0A1208C89005EC1209CA1208CB90CB
:1028C90005ED1208D704F0A3F07A1D79D41231AAC4
:1028D900120C4F7D661200167F1A123B9C120AF7E2
:0A28E90090052F1213CF000000002D
:0128F30022C2
:1035B300120A0D04F0E4FF1209F40FEFB40FF8122E
:1035C3000C2C7441F0A37457F0A37468F0A3742C0B
:1035D300F0E4FF120D76E0FE74A32FF582E43405C8
:1035E300F583EEF00FEFB414EA9005B7120A9BEFE0
:1035F30024309005B91208A49005BB120B041208DD
:10360300CF1208D604F0A3F07A1D79E51231AA127D
:103613000C4F7D351200167F1A123B9C120AF7904D
:09362300052F1213CF0000000076
:01362C00227B
:103B0D007D517C04ED1D70011C144C70F7EF1F707E
:063B1D00011E144E70EAC7
:013B2300227F
:0D3BF5008FC4EEFF8FC375C65A75C6A5229A
:0D3BDB00E4F5C7F5C5F5C675C380F5C42235
:0F3BAD0075C78375C501123BF500AFC2123BDB34
:013BBC0022E6
:103B240075C78375C5028FC4EEFF8FC3AF058FC2FF
:073B3400123BFB00023BDB2A
:0D3BE80075C78375C503123BF500023BDB7A
:063912009006E8121420EB
:10391800E49006EEF09006EDE0FFA3E0FEC39F50B2
:1039280024EE2DFFE43CFE123BAD9006E812140095
:103938009006EEE0F582758300EF1211959006EE81
:05394800E004F080D056
:01394D002257
:1037610090071A12142090071DECF0FEA3EDF0FF54
:10377100123BE8E4900720F090071FE0FFA3E0FE72
:10378100C39F502EEEFF90071EE02FFF90071DE014
:103791003400FE90071A121400900720E0F582759C
:1037A1008300121156FD123B2400900720E004F023
:0237B10080C6D0
:0137B30022F3
:0E3BCD009000010211569006E9F09006E822E1
:102AE6007410122B9A7420122B9A7401123BD3F095
:102AF600FB7A0679E8FF1222A67402123BD304F091
:102B06007F01122B687F01122B847F011222A6748B
:102B160004122BB07408122BB07401122B507402DD
:102B2600F09006E804F07B017A0679E8FF1222A607
:102B36007410122B507420F09006E87403F0FF1204
:0A2B46002B68FF122B84FF0222A669
:102B50009006E9F09006E87403F07B017A0679E8C4
:102B6000FF1222A69006E9227B017A0679E812225A
:102B7000A69006E97440F09006E87403F07B017AB1
:102B80000679E8221222A69006E97480F09006E801
:102B90007403F07B017A0679E8229006E9F090064A
:102BA000E87403F07B017A0679E87F051222A622F9
:102BB0009006E9F09006E87401F0FB7A0679E87F68
:052BC000031222A62211
:1022A600EFD3940540037F012212113DFED3940320
:1022B60040037F0222EF7035EE7008123BCDF452D8
:1022C60093529412113DB40108123BCD4293F4523D
:1022D6009412113DFEB40207123BCD42934294EE96
:1022E600B4030A123BCDFEF45293EE4294EF64011E
:1022F600703712113DFE7008123BCDF45291529286
:10230600EEB40108123BCD4291F4529212113DB443
:102316000207123BCD4291429212113DB4030A12BA
:102326003BCDFEF45291EE4292EF640270371211E9
:102336003DFE7008123BCDF452955296EEB401085C
:10234600123BCD4295F4529612113DB40207123B50
:10235600CD4295429612113DB4030A123BCDFEF4CE
:102366005295EE4296EF6403703712113DFE7008E7
:10237600123BCDF452B152B2EEB40108123BCD423B
:10238600B1F452B212113DB40207123BCD42B14232
:10239600B212113DB4030A123BCDFEF452B1EE4225
:1023A600B2EF6404703712113DFE7008123BCDF493
:1023B60052B352B4EEB40108123BCD42B3F452B458
:1023C60012113DB40207123BCD42B342B412113D85
:1023D600B4030A123BCDFEF452B3EE42B4EF6405E9
:1023E600703712113DFF7008123BCDF452C952CA24
:1023F600EFB40108123BCD42C9F452CA12113DB4E2
:102406000207123BCD42C942CA12113DB4030A1259
:0C2416003BCDFFF452C9EF42CA7F002208
:1027C7004107730041077200410774004107750014
:103ABE0075D0089007547401F0900773F0900616B5
:0C3ACE00E02290062F7402F090053322D5
:05000600D288D2A822FF
:05000E00C28AC2AA2213
:03000300023806BA
:10380600C0E0C0F0C083C082C0D0123ABE4404F00B
:10381600C29690062FE0FFB4030890074B7401F0A0
:10382600C2A890060BE0B40115EFB40411123AD009
:103836001213CF0000000190060BE4F0C2A8D0D00E
:09384600D082D083D0F0D0E03232
:0300130002384F61
:10384F00C0E0C0F0C083C082C0D0123ABE4401F0C5
:10385F00C29690062FE0FFB4030890074B7401F057
:10386F00C2AA90060BE0B40113EFB4040F123AD0C2
:10387F001213CF0000000190060BE4F0D0D0D082DD
:07388F00D083D0F0D0E0323D
:0427D7004107700046
:103A84001213ABEF2401FFE43EFEE43DFDE43CFCF5
:0D3A940022E47F14FEFDFC1213B702126A3B
:103BBD0053D1DFE4F5D375D24C53D17F53AFBF2230
:103B770053D1FD75D5CD75D4D443D10843AF205368
:033B8700EFFD222D
:03009B0002394ED9
:10394E00C0E0C0F0C083C082C0D075D00875D5CDA0
:10395E0075D4D4900004E0601414F0E0700F900061
:10396E000304F0900000E4F0A3F01238D553EFFDFD
:0B397E00D0D0D082D083D0F0D0E03257
:0300A300022C9B91
:102C9B00C0E0C0F0C083C082C0D075D008900533AF
:102CAB00123A849005331213C390052F123A849075
:102CBB00052F1213C390076C123A8490076C1213F2
:102CCB00C3900679123A9590052F1213B7D31213AE
:102CDB0087401090052F1213CF000000009006B311
:102CEB007401F090067D1213ABEF24F9FFEE34FF65
:102CFB00FEED34FFFDEC34FFFCE47B14FAF9F81223
:102D0B00126A9005331213B7C3121387700590071D
:102D1B007004F090067D123A959005331213B7D3D9
:102D2B001213874030900544E0FEA3E07C002400A2
:102D3B00FFEC3EFEE4FD90067D1213C390053312AB
:102D4B0013CF0000000053D17F90062F7404F09036
:102D5B000748E004F053EFFBD0D0D082D083D0F003
:032D6B00D0E03283
:0D27DB004200000000410002004100040027
:103B3B00E475F00112140912113DFF222499F5824C
:063B4B0074023EF5832226
:103AF400759850438E40538EFE53890F758BE8752D
:093B04008DFFC2ABD28ED2AC22BF
:103A1A009006E97401F09006E8F0FB7A0679E8FF6F
:103A2A001222A6759A50438E0475D7E875D6FF43BD
:053A3A008E1043AF01F6
:013A3F002264
:0C3C0200C2AC8F993099FDC299D2AC225F
:1000160090071DEDF090071A121420E94A60179018
:10002600071DE0601190071A123B3B123B9C90079C
:070036001DE014F080E92237
:103B9C0053AFFE8F9BE59A30E1FB539AFD43AF0187
:013BAC0022F6
:103AA10090072D12142090072D12140012113D6061
:0D3AB1000B90072D123B3B123B9C80EA223C
:030043000236A6DC
:1036A600C0E0C0F0C083C082C0D075D000C000C0EA
:1036B6000653AFFE9000047415F0E59A30E02D53E2
:1036C6009AFE900000E0FEA3E0123B47E59BF090D7
:1036D6000000E475F001121254D3900001E09494B6
:1036E600900000E094024004E4F0A3F0E59A30E193
:1036F60003539AFD43AF01D006D000D0D0D082D07C
:0637060083D0F0D0E03298
:103ADA0053AFFE7E037F94900299E4F0A3DFFCDEED
:093AEA00FAE4900003F043AF017F
:013AF30022B0
:1038D50053AFFEE49006E6F0A3F09006E6E0FEA303
:1038E500E0FF123B47E0FD74052FF58274003EF5BD
:1038F50083EDF09006E6E475F0011212549006E6A9
:0C390500E0B402D6A3E0B494D143AF01BB
:013911002293
:0C3C0E004750474741004750524D4300CB
:1034A900121400E92409F9E43AFA02113D9006F6EA
:1034B9001214009006FAE07E0029F9EE3AFA227A0F
:1034C9000679F97B019007230214202F24F0F0904C
:1034D900075CE075F00AA4FFA3E02F229006F6121C
:1034E90014009006FAE0F5827583000211569006E1
:1034F900F60214009006F60214009006F002140079
:10350900FF740129F9E43AFA22F583EFF0900728CC
:10351900E004F0229006F00214001214209006EA4A
:09352900021400900720021400B6
:0637B40090072012142012
:1037BA00900723121420ED60309007201214001293
:1037CA00113DFF642A600CEFC394204006EFD394A6
:1037DA007A40037FFF2212113DB42C011D9007216C
:1037EA00E475F00112125480CD900723121400AF31
:0B37FA0001900720121400C3E99FFF9C
:0138050022A0
:063050009006F0121420AE
:103056007BFF7A3C790E9007301214209006F3120B
:103066001400122D6E9006F612142012351D9000D3
:103076000974301211951234FD7D061237B4EFF43F
:10308600601D1234FD8F821234F19006F0B43007C1
:103096001234A9440180051234A954FE1211831278
:1030A60034FD7D071237B4EFF460391234FD7E002B
:1030B600E92FF9EE3AFAC003C002C0017A0679F99F
:1030C6001234CCD001D002D0031229FC90075AE06A
:1030D600FF12351D900015EF12119590075BE090D9
:1030E6000016801012351D9000157430121195903F
:0730F6000016743012119561
:0130FD0022B0
:061739009006F0121420DE
:10173F007BFF7A3C79149007301214209006F31235
:10174F001400122D6E9006F61214207D011219CC82
:10175F00603B1234B6C003C002C0011234C8D001BE
:10176F00D002D0031229FC90075EE075F00AA4FFA7
:10177F00A3E09007491234D424F0900748F0900763
:10178F005A1234DB24F8900747F01219F91234F784
:10179F007D031219CC606D1234B6C003C002C001B4
:1017AF001234C8D001D002D0031219D6EF12118310
:1017BF0090075BE0FF123503900001EF1211959037
:1017CF00075CE090000212119590075DE090000316
:1017DF00121195900766E09000041211959007671B
:1017EF00E0900005121195900768E0900006121125
:1017FF0095900769E090000712119590076AE090A5
:10180F00000880481235037430121183123503908B
:10181F0000017430121195900002743012119590DE
:10182F0000037430121195900004743012119590CA
:10183F0000057430121195900006743012119590B6
:10184F000007743012119590000874301211951220
:10185F0034F77D041219E560181234E59006F0B4E0
:10186F004E071234A9440280051234A954FD1211F7
:10187F00831234F77D051219E560751234B6C00373
:10188F00C002C0011234C8D001D002D0031219D641
:10189F0090000AEF12119590075BE090000B121168
:1018AF009590075CE090000C12119590075DE09009
:1018BF00000D12119590075EE090000E1211959099
:1018CF000766E090000F121195900767E0900010E7
:1018DF00121195900768E090001112119590076909
:1018EF00E090001212119590076AE090001380505B
:1018FF0012350390000A743012119590000B74305A
:10190F0012119590000C743012119590000D7430D7
:10191F0012119590000E743012119590000F7430C3
:10192F0012119590001074301211959000117430AF
:10193F00121195900012743012119590001374309B
:10194F001211951234F77D061219EF60181234E553
:10195F009006F0B445071234A9440480051234A947
:10196F0054FB1211831234F77D091219EF604D12D7
:10197F0034B6C003C002C0011234C8D001D002D0A7
:10198F00031229FC90075AE075F00AA4FFA3E09018
:10199F0007461234D424F0900745F090075EE0FF1D
:1019AF007E007C007D0A1211B7A3E02FFFEC3ECF23
:0C19BF0024C0CF3405900743F0A3EFF0E4
:1019CB00221237B49006FAEFF0F4221229FC90079A
:1019DB005AE0FF9006F0121400221237B49006FA68
:0E19EB00EFF0F4221237B49006FAEFF0F42277
:103A40009006EA1214209006ED1214009006F3126C
:103A500035231230509006ED1214009006F3123503
:043A600023021739ED
:0629FC00900720121420D8
:102A020012352CE4900726F0A3F0FF12113DB42DED
:102A120006EF440212350912113DFE642C6023EECA
:102A2200642A601EEEB42E06EF4401123509EF301F
:102A3200E0059007278003900726E004F012350A8C
:102A420080C9EF30E10A900721E475F001121254B7
:102A5200900726E0D3940840037408F0E490072816
:102A6200F0900726E0FF900728E0FEC39F50161261
:102A7200352C8E821234F1FF745A2EF582E434071B
:102A820012351280DC900727E0D3940540037405C9
:102A9200F0900727E0FF900723121400EF12118332
:102AA200E4900728F0900727E0FFA3E0FEC39F50C1
:102AB2002D900726E02401FDE433FCEE7E002DFF7D
:102AC200EE3CFE12352C8F828E83121156FF900738
:102AD20028E02466F582E4340712351280C7900795
:032AE20026E0FFEC
:012AE50022CE
:0300000002339236
:0C339200787FE4F6D8FD7581220233D963
:10113D00BB010689828A83E0225002E722BBFE02B0
:09114D00E32289828A83E49322E3
:10115600BB010CE58229F582E5833AF583E022504E
:1011660006E92582F8E622BBFE06E92582F8E22298
:0D117600E58229F582E5833AF583E49322B2
:10118300BB010689828A83F0225002F722BBFE014B
:02119300F32245
:10119500F8BB010DE58229F582E5833AF583E8F090
:1011A500225006E92582C8F622BBFE05E92582C83C
:0211B500F22224
:1011B700EF8DF0A4A8F0CF8CF0A428CE8DF0A42E4C
:0211C700FE2206
:1011C900BC000BBE0029EF8DF084FFADF022E4CC0A
:1011D900F875F008EF2FFFEE33FEEC33FCEE9DECD3
:1011E900984005FCEE9DFE0FD5F0E9E4CEFD22ED19
:1011F900F8F5F0EE8420D21CFEADF075F008EF2F63
:10120900FFED33FD4007985006D5F0F222C398FD53
:051219000FD5F0EA22F0
:10121E00C2D5EC30E709B2D5E4C39DFDE49CFCEEEB
:10122E0030E715B2D5E4C39FFFE49EFE1211C9C389
:10123E00E49DFDE49CFC80031211C930D507C3E484
:06124E009FFFE49EFE225A
:10125400C5F0F8A3E028F0C5F0F8E5821582700225
:061264001583E038F022C2
:10126A00E88FF0A4CC8BF0A42CFCE98EF0A42CFC23
:10127A008AF0EDA42CFCEA8EF0A4CDA8F08BF0A4A1
:10128A002DCC3825F0FDE98FF0A42CCD35F0FCEB00
:10129A008EF0A4FEA9F0EB8FF0A4CFC5F02ECD39C5
:0F12AA00FEE43CFCEAA42DCE35F0FDE43CFC2232
:1012B90075F008758200EF2FFFEE33FECD33CDCCEC
:1012C90033CCC58233C5829BED9AEC99E58298406F
:1012D9000CF582EE9BFEED9AFDEC99FC0FD5F0D64C
:1012E900E4CEFBE4CDFAE4CCF9A88222B800C1B976
:1012F9000059BA002DEC8BF084CFCECDFCE5F0CBB4
:10130900F97818EF2FFFEE33FEED33FDEC33FCEBEC
:1013190033FB10D703994004EB99FB0FD8E5E4F9A7
:10132900FA227818EF2FFFEE33FEED33FDEC33FC94
:10133900C933C910D7059BE99A4007EC9BFCE99A88
:10134900F90FD8E0E4C9FAE4CCFB2275F010EF2FCD
:10135900FFEE33FEED33FDCC33CCC833C810D707CD
:101369009BEC9AE899400AED9BFDEC9AFCE899F808
:0E1379000FD5F0DAE4CDFBE4CCFAE4C8F9229B
:10138700EB9FF5F0EA9E42F0E99D42F0E89C45F0BC
:011397002233
:10139800E8600FECC313FCED13FDEE13FEEF13FF33
:0313A800D8F12257
:0C13AB00E0FCA3E0FDA3E0FEA3E0FF22B5
:0C13B700E0F8A3E0F9A3E0FAA3E0FB22B9
:0C13C300ECF0A3EDF0A3EEF0A3EFF0229D
:1013CF00A8828583F0D083D0821213E61213E6121F
:1013DF0013E61213E6E473E493A3C583C5F0C58344
:1013EF00C8C582C8F0A3C583C5F0C583C8C582C868
:0113FF0022CB
:09140000E0FBA3E0FAA3E0F922ED
:10140900F8E0FBA3A3E0F925F0F0E582158270026C
:071419001583E0FA38F02210
:09142000EBF0A3EAF0A3E9F022CD
:10142900D083D082F8E4937012740193700DA3A352
:1014390093F8740193F5828883E473740293686066
:06144900EFA3A3A380DF66
:100DD800E510241DF582E43407F583E00510229020
:100DE800071A300F0390071DE475F0011214090269
:100DF800113D2008E97F2ED2088018EF540F249067
:100E0800D43440D4FF300C0BEF24BFB41A00500385
:100E18002461FFE511600215110514E5147002053F
:100E280013300F0E90071AE475F001121409EF023F
:100E380011830239F37403D20F8003E4C20FF51053
:100E480090071A121420E4F511F513F514E5116052
:100E5800077F20120E1B80F57512FFC209C208C257
:100E68000AC20BC20DC20EC210120DE7FF700D3080
:100E78000F057F00120E2CAF14AE1322B4255FC2EB
:100E8800D5C20C120DE7FF24D0B40A00501A75F031
:100E98000A781130D50508B6FF0106C6A426F62043
:100EA800D5047002D20B80D924CFB41A00EF5004B5
:100EB800C2E5D20C02102DD20980C6D20880C0D259
:100EC8000A80BCD2D580BAD20D80B47F20120E1B06
:100ED800200A077401B5110040F1120DD8FF120E57
:100EE8001B020E55D210D20E8095120DD8FB120D92
:100EF800D8FA120DD8F94A4B700679FE7A107BFFA2
:100F0800200A2EE511602A7E008E82758300121158
:100F18005660060EEE651270F0C2D5EBC0E0EAC06E
:100F2800E0E9C0E0EE121074D0E0F9D0E0FAD0E0C9
:100F3800FB12113DFF60AAEBC0E0EAC0E0E9C0E0A7
:100F4800120E1BD0E02401F9D0E03400FAD0E0FB07
:100F5800E5120460DCD512D980877BFF7A1079709E
:100F6800D20A809C791080027908C20EC2108008CB
:100F7800D2D5790A8004790AC2D5E512047002F53F
:100F880012E4FAFDFEFF120DD8FC7B0820091312AB
:100F98000DD8FD7B1030080A120DD8FE120DD8FFAF
:100FA8007B20EC3382D592D55013C3E43008069FDA
:100FB800FFE49EFEE42009039DFDE49CFCE4CBF8DD
:100FC800C209EC700CCFCECDCCE824F8F870F380D1
:100FD80017C3EF33FFEE33FEED33FDEC33FCEB3399
:100FE800FB994002FB0FD8E9EB300905F8D0E0C4C3
:100FF80048B209C0E00AEC4D4E4F78207B0070C221
:10100800EAB5120040BCC0E0121076D0F0D0E02063
:101018000904C4C0E0C4B209C0F0120E04D0F0D56F
:10102800F0EB020E551214290EF2530F6C580EC332
:101038004C0EBF420F704F0F78440F78490ED843BB
:081048000F7E550F62460F6296
:10105000450F6247111E500EC72D0ECB2E0EEE2BE4
:101060000ECF230EEC2011072A0E874800000EE653
:101070003F3F3F00790AA2D5200B14300D09B9106B
:10108000020404B9080104A2D5200E025001042074
:101090000A68920AB511005034C0E07F20300B1965
:1010A0007F30A20A720E720D500F1210CDC20AC20A
:1010B0000EC20DC2107F30800F300D03E9C0E01268
:1010C0000E1B300D03D0E0F9D0E0B511CC300D1778
:1010D0007F30B9100C120E1B7F58300C077F7880C0
:1010E00003B90803120E1B300A057F2D020E1B7F69
:1010F000202010F87F2B200EF322920A80CF286E3A
:10110000756C6C2900D209120DD83009F8C2097823
:101110001130D50108F6020E872D50434958120DA3
:10112000D82403B405004001E490111993120E0C69
:0D113000743A120E0CD20B751104020F6CF4
:102D6E0090072DEBF0A3EAF0A3E9F0A3E0FBA3E0BC
:102D7E00FAA3E0F912113D7003022E1A90072DE00E
:102D8E00FBA3E0FAA3E0F912113D7003022E269088
:102D9E000730E0F9A3E0FAA3E0A3C9F0A3EAF0A399
:102DAE00E9F090072DA3E0FAA3E0F9900736EBF0D7
:102DBE00A3EAF0A3E9F0900733E0FBA3E0FAA3E067
:102DCE00F912113DFF6026900736E0FBA3E0FAA34F
:102DDE00E0F912113D6F701590073475F001121263
:102DEE0054900737E475F00112125480C9900733DE
:102DFE00E0FBA3E0FAA3E0F912113D7002800D9002
:102E0E00072EE475F001121254022D8A90072DE060
:0F2E1E00FBA3E0FAA3E0F9227B007A00790022FF
:10339E00021F8AE493A3F8E493A34003F68001F29C
:1033AE0008DFF48029E493A3F85407240CC8C33330
:1033BE00C4540F4420C8834004F456800146F6DFFF
:1033CE00E4800B01020408102040809026BBE47EAE
:1033DE00019360BCA3FF543F30E509541FFEE493F4
:1033EE00A360010ECF54C025E060A840B8E493A3BB
:1033FE00FAE493A3F8E493A3C8C582C8CAC583CAE6
:10340E00F0A3C8C582C8CAC583CADFE9DEE780BE9D
:0127E80000F0
:1039F300EFB40A07740D1239FE740A309811A899AE
:103A0300B8130CC2983098FDA899C298B811F63033
:073A130099FDC299F599220B
:00000001FF
